{
  "_format": "hh-sol-artifact-1",
  "contractName": "MedicineContract",
  "sourceName": "contracts/medicine.sol",
  "abi": [
    {
      "anonymous": false,
      "inputs": [
        {
          "indexed": true,
          "internalType": "bytes32",
          "name": "id",
          "type": "bytes32"
        },
        {
          "indexed": false,
          "internalType": "string",
          "name": "name",
          "type": "string"
        },
        {
          "indexed": false,
          "internalType": "string",
          "name": "location",
          "type": "string"
        },
        {
          "indexed": true,
          "internalType": "address",
          "name": "owner",
          "type": "address"
        },
        {
          "indexed": false,
          "internalType": "uint256",
          "name": "batch_no",
          "type": "uint256"
        }
      ],
      "name": "MedicineAdded",
      "type": "event"
    },
    {
      "anonymous": false,
      "inputs": [
        {
          "indexed": true,
          "internalType": "bytes32",
          "name": "id",
          "type": "bytes32"
        },
        {
          "indexed": true,
          "internalType": "address",
          "name": "previousOwner",
          "type": "address"
        },
        {
          "indexed": true,
          "internalType": "address",
          "name": "newOwner",
          "type": "address"
        },
        {
          "indexed": false,
          "internalType": "string",
          "name": "newLocation",
          "type": "string"
        }
      ],
      "name": "MedicineBought",
      "type": "event"
    },
    {
      "inputs": [
        {
          "internalType": "string",
          "name": "_name",
          "type": "string"
        },
        {
          "internalType": "string",
          "name": "_location",
          "type": "string"
        },
        {
          "internalType": "address",
          "name": "_owner",
          "type": "address"
        },
        {
          "internalType": "uint256",
          "name": "_batch_no",
          "type": "uint256"
        }
      ],
      "name": "addMedicine",
      "outputs": [
        {
          "internalType": "bytes32",
          "name": "",
          "type": "bytes32"
        }
      ],
      "stateMutability": "nonpayable",
      "type": "function"
    },
    {
      "inputs": [
        {
          "internalType": "bytes32",
          "name": "_id",
          "type": "bytes32"
        },
        {
          "internalType": "address",
          "name": "_newOwner",
          "type": "address"
        },
        {
          "internalType": "string",
          "name": "_newLocation",
          "type": "string"
        }
      ],
      "name": "buyMedicine",
      "outputs": [],
      "stateMutability": "payable",
      "type": "function"
    },
    {
      "inputs": [
        {
          "internalType": "bytes32",
          "name": "_id",
          "type": "bytes32"
        }
      ],
      "name": "getMedicineInfo",
      "outputs": [
        {
          "internalType": "string",
          "name": "",
          "type": "string"
        },
        {
          "internalType": "string",
          "name": "",
          "type": "string"
        },
        {
          "internalType": "address",
          "name": "",
          "type": "address"
        },
        {
          "internalType": "uint256",
          "name": "",
          "type": "uint256"
        }
      ],
      "stateMutability": "view",
      "type": "function"
    },
    {
      "inputs": [
        {
          "internalType": "bytes32",
          "name": "_id",
          "type": "bytes32"
        }
      ],
      "name": "locateMedicine",
      "outputs": [
        {
          "internalType": "string",
          "name": "",
          "type": "string"
        }
      ],
      "stateMutability": "view",
      "type": "function"
    },
    {
      "inputs": [
        {
          "internalType": "bytes32",
          "name": "",
          "type": "bytes32"
        }
      ],
      "name": "medicines",
      "outputs": [
        {
          "internalType": "bytes32",
          "name": "id",
          "type": "bytes32"
        },
        {
          "internalType": "string",
          "name": "name",
          "type": "string"
        },
        {
          "internalType": "string",
          "name": "location",
          "type": "string"
        },
        {
          "internalType": "address",
          "name": "owner",
          "type": "address"
        },
        {
          "internalType": "uint256",
          "name": "batch_no",
          "type": "uint256"
        }
      ],
      "stateMutability": "view",
      "type": "function"
    }
  ],
  "bytecode": "0x608060405234801561001057600080fd5b5061155d806100206000396000f3fe60806040526004361061004a5760003560e01c80631d299cea1461004f578063342d521b1461008c5780635dc5cd8b146100cc57806387c15ab5146100e8578063ef52741714610125575b600080fd5b34801561005b57600080fd5b5061007660048036038101906100719190610c5b565b610166565b6040516100839190610d13565b60405180910390f35b34801561009857600080fd5b506100b360048036038101906100ae9190610d5a565b610330565b6040516100c39493929190610e24565b60405180910390f35b6100e660048036038101906100e19190610e77565b61052d565b005b3480156100f457600080fd5b5061010f600480360381019061010a9190610d5a565b610806565b60405161011c9190610ee6565b60405180910390f35b34801561013157600080fd5b5061014c60048036038101906101479190610d5a565b610907565b60405161015d959493929190610f08565b60405180910390f35b60008085858585604051602001610180949392919061100e565b6040516020818303038152906040528051906020012090506000801b60008083815260200190815260200160002060000154146101f2576040517f08c379a00000000000000000000000000000000000000000000000000000000081526004016101e9906110a0565b60405180910390fd5b60006040518060a001604052808381526020018881526020018781526020018673ffffffffffffffffffffffffffffffffffffffff1681526020018581525090508060008084815260200190815260200160002060008201518160000155602082015181600101908161026591906112cc565b50604082015181600201908161027b91906112cc565b5060608201518160030160006101000a81548173ffffffffffffffffffffffffffffffffffffffff021916908373ffffffffffffffffffffffffffffffffffffffff160217905550608082015181600401559050508473ffffffffffffffffffffffffffffffffffffffff16827f762ec8938ed13180aaf41990cc284e2bfad60bb207d01432c5361272d9cdc28c89898860405161031b9392919061139e565b60405180910390a38192505050949350505050565b6060806000806000801b6000808781526020019081526020016000206000015403610390576040517f08c379a00000000000000000000000000000000000000000000000000000000081526004016103879061142f565b60405180910390fd5b60008086815260200190815260200160002060010160008087815260200190815260200160002060020160008088815260200190815260200160002060030160009054906101000a900473ffffffffffffffffffffffffffffffffffffffff1660008089815260200190815260200160002060040154838054610412906110ef565b80601f016020809104026020016040519081016040528092919081815260200182805461043e906110ef565b801561048b5780601f106104605761010080835404028352916020019161048b565b820191906000526020600020905b81548152906001019060200180831161046e57829003601f168201915b5050505050935082805461049e906110ef565b80601f01602080910402602001604051908101604052809291908181526020018280546104ca906110ef565b80156105175780601f106104ec57610100808354040283529160200191610517565b820191906000526020600020905b8154815290600101906020018083116104fa57829003601f168201915b5050505050925093509350935093509193509193565b60003411610570576040517f08c379a00000000000000000000000000000000000000000000000000000000081526004016105679061149b565b60405180910390fd5b6000801b60008085815260200190815260200160002060000154036105ca576040517f08c379a00000000000000000000000000000000000000000000000000000000081526004016105c19061142f565b60405180910390fd5b8173ffffffffffffffffffffffffffffffffffffffff1660008085815260200190815260200160002060030160009054906101000a900473ffffffffffffffffffffffffffffffffffffffff1673ffffffffffffffffffffffffffffffffffffffff160361066d576040517f08c379a000000000000000000000000000000000000000000000000000000000815260040161066490611507565b60405180910390fd5b600080600085815260200190815260200160002060030160009054906101000a900473ffffffffffffffffffffffffffffffffffffffff1690508073ffffffffffffffffffffffffffffffffffffffff166108fc349081150290604051600060405180830381858888f193505050501580156106ed573d6000803e3d6000fd5b508260008086815260200190815260200160002060030160006101000a81548173ffffffffffffffffffffffffffffffffffffffff021916908373ffffffffffffffffffffffffffffffffffffffff16021790555081600080868152602001908152602001600020600201908161076491906112cc565b508273ffffffffffffffffffffffffffffffffffffffff1660008086815260200190815260200160002060030160009054906101000a900473ffffffffffffffffffffffffffffffffffffffff1673ffffffffffffffffffffffffffffffffffffffff16857fb0216fede80a9d00e14119bf29afcd97531154eca7ee5b150fb659c856858fc3856040516107f89190610ee6565b60405180910390a450505050565b60606000801b6000808481526020019081526020016000206000015403610862576040517f08c379a00000000000000000000000000000000000000000000000000000000081526004016108599061142f565b60405180910390fd5b6000808381526020019081526020016000206002018054610882906110ef565b80601f01602080910402602001604051908101604052809291908181526020018280546108ae906110ef565b80156108fb5780601f106108d0576101008083540402835291602001916108fb565b820191906000526020600020905b8154815290600101906020018083116108de57829003601f168201915b50505050509050919050565b6000602052806000526040600020600091509050806000015490806001018054610930906110ef565b80601f016020809104026020016040519081016040528092919081815260200182805461095c906110ef565b80156109a95780601f1061097e576101008083540402835291602001916109a9565b820191906000526020600020905b81548152906001019060200180831161098c57829003601f168201915b5050505050908060020180546109be906110ef565b80601f01602080910402602001604051908101604052809291908181526020018280546109ea906110ef565b8015610a375780601f10610a0c57610100808354040283529160200191610a37565b820191906000526020600020905b815481529060010190602001808311610a1a57829003601f168201915b5050505050908060030160009054906101000a900473ffffffffffffffffffffffffffffffffffffffff16908060040154905085565b6000604051905090565b600080fd5b600080fd5b600080fd5b600080fd5b6000601f19601f8301169050919050565b7f4e487b7100000000000000000000000000000000000000000000000000000000600052604160045260246000fd5b610ad482610a8b565b810181811067ffffffffffffffff82111715610af357610af2610a9c565b5b80604052505050565b6000610b06610a6d565b9050610b128282610acb565b919050565b600067ffffffffffffffff821115610b3257610b31610a9c565b5b610b3b82610a8b565b9050602081019050919050565b82818337600083830152505050565b6000610b6a610b6584610b17565b610afc565b905082815260208101848484011115610b8657610b85610a86565b5b610b91848285610b48565b509392505050565b600082601f830112610bae57610bad610a81565b5b8135610bbe848260208601610b57565b91505092915050565b600073ffffffffffffffffffffffffffffffffffffffff82169050919050565b6000610bf282610bc7565b9050919050565b610c0281610be7565b8114610c0d57600080fd5b50565b600081359050610c1f81610bf9565b92915050565b6000819050919050565b610c3881610c25565b8114610c4357600080fd5b50565b600081359050610c5581610c2f565b92915050565b60008060008060808587031215610c7557610c74610a77565b5b600085013567ffffffffffffffff811115610c9357610c92610a7c565b5b610c9f87828801610b99565b945050602085013567ffffffffffffffff811115610cc057610cbf610a7c565b5b610ccc87828801610b99565b9350506040610cdd87828801610c10565b9250506060610cee87828801610c46565b91505092959194509250565b6000819050919050565b610d0d81610cfa565b82525050565b6000602082019050610d286000830184610d04565b92915050565b610d3781610cfa565b8114610d4257600080fd5b50565b600081359050610d5481610d2e565b92915050565b600060208284031215610d7057610d6f610a77565b5b6000610d7e84828501610d45565b91505092915050565b600081519050919050565b600082825260208201905092915050565b60005b83811015610dc1578082015181840152602081019050610da6565b60008484015250505050565b6000610dd882610d87565b610de28185610d92565b9350610df2818560208601610da3565b610dfb81610a8b565b840191505092915050565b610e0f81610be7565b82525050565b610e1e81610c25565b82525050565b60006080820190508181036000830152610e3e8187610dcd565b90508181036020830152610e528186610dcd565b9050610e616040830185610e06565b610e6e6060830184610e15565b95945050505050565b600080600060608486031215610e9057610e8f610a77565b5b6000610e9e86828701610d45565b9350506020610eaf86828701610c10565b925050604084013567ffffffffffffffff811115610ed057610ecf610a7c565b5b610edc86828701610b99565b9150509250925092565b60006020820190508181036000830152610f008184610dcd565b905092915050565b600060a082019050610f1d6000830188610d04565b8181036020830152610f2f8187610dcd565b90508181036040830152610f438186610dcd565b9050610f526060830185610e06565b610f5f6080830184610e15565b9695505050505050565b600081905092915050565b6000610f7f82610d87565b610f898185610f69565b9350610f99818560208601610da3565b80840191505092915050565b60008160601b9050919050565b6000610fbd82610fa5565b9050919050565b6000610fcf82610fb2565b9050919050565b610fe7610fe282610be7565b610fc4565b82525050565b6000819050919050565b61100861100382610c25565b610fed565b82525050565b600061101a8287610f74565b91506110268286610f74565b91506110328285610fd6565b6014820191506110428284610ff7565b60208201915081905095945050505050565b7f4d65646963696e6520616c726561647920657869737473000000000000000000600082015250565b600061108a601783610d92565b915061109582611054565b602082019050919050565b600060208201905081810360008301526110b98161107d565b9050919050565b7f4e487b7100000000000000000000000000000000000000000000000000000000600052602260045260246000fd5b6000600282049050600182168061110757607f821691505b60208210810361111a576111196110c0565b5b50919050565b60008190508160005260206000209050919050565b60006020601f8301049050919050565b600082821b905092915050565b6000600883026111827fffffffffffffffffffffffffffffffffffffffffffffffffffffffffffffffff82611145565b61118c8683611145565b95508019841693508086168417925050509392505050565b6000819050919050565b60006111c96111c46111bf84610c25565b6111a4565b610c25565b9050919050565b6000819050919050565b6111e3836111ae565b6111f76111ef826111d0565b848454611152565b825550505050565b600090565b61120c6111ff565b6112178184846111da565b505050565b5b8181101561123b57611230600082611204565b60018101905061121d565b5050565b601f8211156112805761125181611120565b61125a84611135565b81016020851015611269578190505b61127d61127585611135565b83018261121c565b50505b505050565b600082821c905092915050565b60006112a360001984600802611285565b1980831691505092915050565b60006112bc8383611292565b9150826002028217905092915050565b6112d582610d87565b67ffffffffffffffff8111156112ee576112ed610a9c565b5b6112f882546110ef565b61130382828561123f565b600060209050601f8311600181146113365760008415611324578287015190505b61132e85826112b0565b865550611396565b601f19841661134486611120565b60005b8281101561136c57848901518255600182019150602085019450602081019050611347565b868310156113895784890151611385601f891682611292565b8355505b6001600288020188555050505b505050505050565b600060608201905081810360008301526113b88186610dcd565b905081810360208301526113cc8185610dcd565b90506113db6040830184610e15565b949350505050565b7f4d65646963696e6520646f6573206e6f74206578697374000000000000000000600082015250565b6000611419601783610d92565b9150611424826113e3565b602082019050919050565b600060208201905081810360008301526114488161140c565b9050919050565b7f5061796d656e7420726571756972656420746f20627579206d65646963696e65600082015250565b6000611485602083610d92565b91506114908261144f565b602082019050919050565b600060208201905081810360008301526114b481611478565b9050919050565b7f596f7520616c7265616479206f776e2074686973206d65646963696e65000000600082015250565b60006114f1601d83610d92565b91506114fc826114bb565b602082019050919050565b60006020820190508181036000830152611520816114e4565b905091905056fea26469706673582212201e8c8fa8e759c43da574a2b485ec1e02e9809a1e801d1edf55997d0af16ba98564736f6c63430008180033",
  "linkReferences": {},
  "deployedLinkReferences": {}
}